{
  "contractName": "Ownable",
  "abi": [
    {
      "inputs": [],
      "stateMutability": "nonpayable",
      "type": "constructor"
    },
    {
      "inputs": [],
      "name": "isOwner",
      "outputs": [
        {
          "internalType": "bool",
          "name": "",
          "type": "bool"
        }
      ],
      "stateMutability": "view",
      "type": "function"
    }
  ],
  "bytecode": "0x608060405234801561001057600080fd5b50336000806101000a81548173ffffffffffffffffffffffffffffffffffffffff021916908373ffffffffffffffffffffffffffffffffffffffff160217905550610106806100606000396000f3fe6080604052348015600f57600080fd5b506004361060285760003560e01c80638f32d59b14602d575b600080fd5b60336047565b604051603e919060b7565b60405180910390f35b60008060009054906101000a900473ffffffffffffffffffffffffffffffffffffffff1673ffffffffffffffffffffffffffffffffffffffff163373ffffffffffffffffffffffffffffffffffffffff1614905090565b60008115159050919050565b60b181609e565b82525050565b600060208201905060ca600083018460aa565b9291505056fea2646970667358221220061252c8f11a6886948501afb639acf3f1aa0cb3db4def0277253d2978bd3f0064736f6c634300080e0033",
  "immutableReferences": {},
  "source": "// SPDX-License-Identifier: MIT\npragma solidity 0.8.14;\n\ncontract Ownable {\n    address payable _owner;\n\n    constructor() {\n        _owner = payable(msg.sender);\n    }\n\n    modifier onlyOwner() {\n        require(msg.sender == _owner, \"you are not the owner\");\n        _;\n    }\n\n    function isOwner() public view returns (bool) {\n        return (msg.sender == _owner);\n    }\n}",
  "sourcePath": "/home/daniel/Documents/projects/supplychain/contracts/Ownable.sol",
  "compiler": {
    "name": "solc",
    "version": "0.8.14+commit.80d49f37.Emscripten.clang"
  },
  "schemaVersion": "3.4.7",
  "updatedAt": "2022-06-03T06:24:24.579Z",
  "devdoc": {
    "kind": "dev",
    "methods": {},
    "version": 1
  },
  "userdoc": {
    "kind": "user",
    "methods": {},
    "version": 1
  }
}